:020000040800F2
:10000000284200207901000805CE0008FBBE000848
:1000100000000000000000000000000000000000E0
:1000200000000000000000000000000009FE0008C1
:10003000000000000000000035D1000821FF00088A
:100040008B010008000000008B0100088B010008F4
:100050008B0100088B0100088B0100088B01000850
:10006000000000002D3300088B0100088B01000800
:100070008B0100088B0100088B01000800000000C4
:100080008B010008550001088B0100088B01000856
:100090008B0100088B0100088B0100088B01000810
:1000A0008B0100088B0100088B010008DD1B010893
:1000B0008B0100088B01000800F002F800F030F816
:1000C0000CA030C8083824182D18A246671EAB466D
:1000D00054465D46AC4201D100F022F87E460F3E08
:1000E0000FCCB6460126334200D0FB1AA246AB46DF
:1000F0003343184718E3010038E3010000230024CC
:1001000000250026103A01D378C1FBD8520700D34E
:1001100030C100D50B6070471FB51FBD10B510BDB5
:1001200000F015FE1146FFF7F7FF1BF0F3F800F0A3
:100130002DFE03B4FFF7F2FF03BC00F033FE000016
:1001400070B505460C46164602E00FCC0FC5103EB2
:10015000102EFAD2082E02D303CC03C5083E042E7B
:1001600007D301CC01C5361F03E021782970641C38
:100170006D1C761EF9D270BD0748804707480047BE
:10018000FEE7FEE7FEE7FEE7FEE7FEE70448054977
:10019000054A064B70470000C5FF0008B90000087B
:1001A000283C002028420020283E0020283E002035
:1001B000FEB5054610460C46184373D0AE468C4635
:1001C0000020AD1A01469C4167D3664600270124F2
:1001D0003D46B61A9D4102D313463A462124654650
:1001E00076462F04360C3E432D0CB61A9D4104D39F
:1001F000150C1B042B4312041034654676462F065B
:10020000360A3E432D0AB61A9D4104D3150E1B0231
:100210002B4312020834654676462F0736093E43C3
:100220002D09B61A9D4104D3150F1B012B43120152
:10023000241D65467646AF07B6083E43AD08B61A9C
:100240009D4104D3950F9B002B439200A41C65464F
:100250007646EF0776083E436D08B61A9D411AD3DD
:1002600092185B41641C16E00018764665464941C9
:10027000B71A9D410191009009D36046B11A984187
:100280008E468446009801990025401C6941DD078F
:1002900052082A435B08641EE6D57246634603B0E3
:1002A000F0BDFFE700200146C046C0462A4623466F
:1002B000F5E701E004C0091F0429FBD28B0701D533
:1002C0000280801CC90700D00270704700290BD043
:1002D000C30702D00270401C491E022904D38307C1
:1002E00002D50280801C891EE3E70022EEE700228F
:1002F000DFE7002203098B422CD3030A8B4211D380
:1003000000239C464EE003460B433CD400224308A6
:100310008B4231D303098B421CD3030A8B4201D396
:1003200094463FE0C3098B4201D3CB01C01A52412E
:1003300083098B4201D38B01C01A524143098B427E
:1003400001D34B01C01A524103098B4201D30B0167
:10035000C01A5241C3088B4201D3CB00C01A52418C
:1003600083088B4201D38B00C01A524143088B4251
:1003700001D34B00C01A5241411A00D201465241EA
:10038000104670475DE0CA0F00D04942031000D309
:100390004042534000229C4603098B422DD3030A5E
:1003A0008B4212D3FC22890112BA030A8B420CD36E
:1003B000890192118B4208D3890192118B4204D397
:1003C00089013AD0921100E08909C3098B4201D317
:1003D000CB01C01A524183098B4201D38B01C01A51
:1003E000524143098B4201D34B01C01A52410309C8
:1003F0008B4201D30B01C01A5241C3088B4201D377
:10040000CB00C01A524183088B4201D38B00C01A23
:100410005241D9D243088B4201D34B00C01A5241FA
:10042000411A00D20146634652415B10104601D387
:100430004042002B00D54942704763465B1000D311
:10044000404201B50020C046C04602BD704770471B
:1004500070470000F0B50C46871A9C410D46861A7D
:100460009D4103D2C01BA141D21963410D0D1F0D47
:10047000C94EEC1BAE435CD07F057F0D0026002FDC
:1004800051D02D05AC46A943DD020123ED0A1B0521
:100490001D4320231B1B24D41746E7403818714105
:1004A0002F46E740CC199D402818314661410C0D7C
:1004B00027D161449A4013D50023401C5941520072
:1004C0000ED14008400001224B005205D34207D311
:1004D00005204007C14201D5B04900E0B04930468F
:1004E000F0BD6B00002A00D001229A181F23203C87
:1004F0001B1B01D5002302E0E540281871410C0DBB
:10050000D7D0012424050919C407CD07400849089C
:10051000E40F28436144002CD5D00024401C6141E5
:100520009A40D0D1CDE76A05520DD9D1C90FC9077C
:10053000D5E79C4D4E00002801D0012400E00024A6
:1005400034195F00002A01D0012600E00026BE1900
:10055000954FAC420CD8AE420AD8B44206D0012521
:100560006D05EC42BCD010461946F0BD9942FCD056
:1005700000203946F0BDF0B51FB40C460F46811A75
:100580009F412546861A9D4106D20125ED076F4001
:10059000401ABC4152187B41210D1E0D8D1BAC46EB
:1005A0007D4D8D437ED075056D0D7CD00D05AE461D
:1005B000AC431B031B0B794D52429D4120236646E1
:1005C0009B1B14D31746F74038180026009074413F
:1005D00060462F460741E41900989D40281866415F
:1005E00016D4714671189A4025D5012320E093183E
:1005F0002A466A415200002B00D0521C1E23203E86
:100600009B1B002B61DD3541EE1728186641E8D5AC
:10061000001876415B1C9A4000D3401C4B05F31830
:100620001524E34010D3002B52D071467118D30F1C
:10063000C01802D3491C05B0F0BD0123DB079A4264
:10064000F9D140084000F6E701225205B21801D165
:10065000002853D00123CC0ADB029943891E002ACB
:1006600008D1020C03D0020C0004103902E002464B
:10067000002020390023550B05D112020823550B09
:1006800001D152010D23550C01D112011B1DD50CB6
:1006900001D192009B1C150D01D152005B1C20253D
:1006A000EE1A01E02CE022E00546F54015439840A3
:1006B000CA1AE10769181305C918002ABBDA032012
:1006C00040070818C10FC9070FE071466118B2E76B
:1006D000F10740080843711071444A000CD001230F
:1006E0005B059A42A7D2C90FC9070020A3E74905B5
:1006F000490D26D1002001E00028F4D100219AE71D
:10070000284D6600002801D0012100E00021711869
:100710005F00002A01D0012600E00026BE19224F0A
:10072000A94210D8AE420ED8B14208D001256D05BD
:10073000E94206D01946A802414010467BE79C4298
:1007400001D0214677E70020394674E710B50C4602
:100750005C4005D50124E4076340FFF70CFF10BDA2
:10076000FFF778FE10BD30B40C465C4004D5012480
:10077000E407634030BC6DE630BCFCE670B5012494
:10078000E40761400D465D4002D4FFF763FE70BD93
:100790006340FFF7F0FE70BDFF0700000000F0FFB0
:1007A0000000F07F0000E0FF0000F87F30B5034656
:1007B000CA02400D1043164D164C0A1502D02043B4
:1007C000002A06DBAA1A002A12DDD040FF2A0BDC21
:1007D00030BD5205520D01D140004008AA1A07D47D
:1007E000D0404042FF2A01DD002030BD0028FCDD62
:1007F0004A00002B01D0012000E000201018012247
:100800005205D042F0D8C817C043604030BD000048
:100810001E040000000000800346CA02400D10B50F
:1008200010430A1504D00124E4072043002A05DB05
:100830000A4CA21A04D4D040FF2A00DD002010BDCB
:100840004A00002B01D0012000E0002010180122F6
:100850005205D042F2D8C817C04310BD1E04000094
:100860001F22030C02D10F22000402D0030E03D07A
:1008700004E00020014670470002083A030F01D14E
:100880000001121F830F01D18000921E002801DB9E
:100890004000521E120551184205C0124118104660
:1008A0007047C10FC90700D040420122920711438F
:1008B000D6E701218907D3E7F0B58B4C0F09254610
:1008C00089B0BD437BD01D092646AE43FAD00E4603
:1008D0005E402740F60F3E43254071D0240121425F
:1008E000FBD0FF24AD19A4042D1B039501252D0574
:1008F000DB02DB0AC9022B43C90A29431E01090195
:10090000040F130F050121431701880B8203914344
:100910002D098C46A90B1E438A039543B30B9A03FA
:1009200096433F09BA0B9403A74302962E467E4393
:100930000497B6464E19D7190C46019654430597AD
:100940007E43371B7646BF1B3601B646BE0B3619B3
:1009500000967646BC043719009C01D3641C0094B1
:100960006400002F01D001263443029E049F75438A
:1009700066467E430496760034196E00341900945E
:10098000029C019E1C196643751BAE460694654683
:100990004519059C05956C43594375460891691A9C
:1009A0000191049E01465143A41B0491611A009CCD
:1009B0000791E10605D061090122114302E072E0CE
:1009C0006EE06109089D00272C0A2D066918049D18
:1009D0007C412A0A2D066918019D6241AC0DAD02C9
:1009E0006D185441079A910D920255196141029A6E
:1009F000644658435443069B059A5A43121A131BE4
:100A00009A0E9B015B187A41010B0005C3185141F6
:100A1000220A200644195A419A4200D2491C012058
:100A20004002814203D315230226F64302E0142339
:100A30000326F6432020C51AA9401746AF40DA40E6
:100A40000A4320460399D840091473181905511810
:100A5000039A3843D2075140AC4009D00122944058
:100A600006D30022401C5141002C01D14008400017
:100A70001E4A934212D3012203989206904207DB4A
:100A80000520400709181A480143C012414004E0FC
:100A9000032040070818C10FC907002009B0F0BDA6
:100AA0000020F107FAE705180C464C4111486D4249
:100AB000A04115D394181A465A410E4864429041F9
:100AC0000ED301204A004005824209D35A008242D7
:100AD00006D35940C90F084AC90700201143DDE772
:100AE00000200649DAE700000000FF07FE070000CB
:100AF000FFFFFF7F0000E0FF0000F07F0000F87FB5
:100B000070B505464800440D124B0020002C0AD059
:100B1000634008D09A4206DA6642B24203DD12050B
:100B20004019514170BD002C08D0002B09D0C90FCD
:100B3000C907002AF6DB084A114370BDC90FC9076F
:100B400070BD28460A03104302D00020034970BD3F
:100B5000284670BDFF0700000000F07F0000F87F0E
:100B6000F0B5FF252D04C609C209FF2704462E4013
:100B70000137CB093E4348402A402B400746002A14
:100B80006BD0002B69D0AA4267D0AB4265D0002859
:100B900000DA32460125ED0529432C4309022002E3
:100BA000090AD21A4B0C7F24E31A434C000A7C44F6
:100BB000E35C7D242404121914145B00A2188842FB
:100BC00001D3521C00E0400049420C465C43241112
:100BD0005C43DB016415E318040A5C43C502200D85
:100BE0000C4644436419250A5D432303EC0C0D466F
:100BF000654300030019EB184C42A34201D35B1874
:100C0000401CD4052018002B07D05B00C91804D362
:100C1000401C002901D1400840003F2189048A423C
:100C200009D3002A08DC1106090F04D00321490763
:100C30004018C00FC007F0BD0122410012068918FC
:100C40007F2252069142F6D205214907C84201D5BA
:100C50009010F0BDFF20C005F0BD002F00DA324635
:100C60001648AA4207D2AB4205D21902090E17D084
:100C7000F80FC007F0BDFF2563002D06AB42F9D881
:100C80004900A942F6D8AB4201D1A942F2D0A9420B
:100C900001D1002101E061004908D0050843F0BD01
:100CA0001102090EFBD0FF200243D005F0BD0A4619
:100CB0000146104654E7000006D501000000C07F41
:100CC0000102C21504D00123DB071943002A0ADB05
:100CD0009E239A1A02D40846D0407047FF22410052
:100CE0001206914201D900207047C017C0437047D7
:100CF0001F22030C02D10F2200041CD0030E01D1CD
:100D00000002083A030F01D10001121F830F01D125
:100D10008000921E002801DB4000521ED2055118AF
:100D2000021251181922904004D3491C002801D105
:100D30004908490008467047C10FC90700D0404222
:100D4000012292071143D3E701218907D0E77546B5
:100D500000F024F8AE46050069465346C008C000BE
:100D6000854618B020B5FFF711FA60BC0027490886
:100D7000B6460026C0C5C0C5C0C5C0C5C0C5C0C533
:100D8000C0C5C0C5403D49008D46704710B50446FA
:100D9000C046C0462046FFF7CCF910BD004870475A
:100DA000C43B002001491820ABBEFEE7260002002C
:100DB000704770B58D180478401CA207920F01D1BE
:100DC0000278401C231106D10378401C03E006780A
:100DD000401C0E70491C521EF9D1002B15D0027810
:100DE0000C2634408A1A401C0C2C03D0A401121B80
:100DF0009B1C08E004782402121B401CF8E71478BE
:100E00000C70491C521C5B1EF9D5A942D3D300209B
:100E100070BD10B50146406A826B50231A420AD158
:100E2000816B01225202114381630168CA68120575
:100E3000920F05D020E0006B026B0846904710BD72
:100E4000827E002A18D10A68120715D58A685307CE
:100E50000122002B09DB4B680C24A3434B60816B00
:100E6000130299431143816306E0816B20231943E8
:100E70008163C16B1143C16309F0F2F910BD10B574
:100E8000406A816B402211438163C16B042211438C
:100E9000C16309F0E7F910BD10B5406A09F0E1F946
:100EA00010BD0000F8B5044600200090206881685D
:100EB0008907890F012905D10168C90731D1C168A6
:100EC00009042ED48168184A1026114001250029F2
:100ED0001AD1816829438160154814490068FFF7D9
:100EE00008FA00E0401E00900028FBD109F0FAFC4F
:100EF000074611E009F0F6FCC01B02280CD9206857
:100F00000068C043C00707D0A06B3043A063E06B0C
:100F10002843E0630120F8BD20680068C043C00793
:100F2000E8D10020F8BD00001700008040420F000B
:100F3000E4250020F8B51E4614460D4607460BF082
:100F40009FF830460BF068F80BF0E2F8380A0BF027
:100F500063F80BF0DDF8F8B20BF05EF80BF0D8F8A0
:100F60000BF08EF8761CF0B20BF056F80BF0D0F8C0
:100F700004E001200BF01CF82070641C6D1E2D068F
:100F80002D0EF6D100200BF013F820700BF09CF81A
:100F90000020F8BD70B50C4605460BF071F82046F0
:100FA0000BF03AF80BF0B4F8280A0BF035F80BF018
:100FB000AFF8E8B20BF030F80BF0AAF80BF060F8DD
:100FC000641CE0B20BF028F80BF0A2F800200AF045
:100FD000EFFF04460BF078F8204670BD70B516465A
:100FE0000D4604460BF04CF830460BF015F80BF0AC
:100FF0008FF8200A0BF010F80BF08AF8E0B20BF033
:101000000BF80BF085F828460BF006F80BF080F88B
:101010000BF05AF80F2014F039FD70BDF0B54E4BAF
:101020009D7D18464D4F0B2400224D492030022D46
:1010300011D19A7544714579AE003D463035AD59B0
:101040004D634579AE003D46303DAD59CD634579A0
:10105000AD007D598D635D7C002D17D10E6D414D26
:10106000AE4207DB4679002E02D04679761E4671E5
:101070000A654A654E6DAE4208DB45796D1C4571C7
:1010800045790B2D00D344710A654A655D7C022DBC
:101090000FD1314EA036B57A002D04D145796D1CA3
:1010A00045710125B57245790B2D00D344710A6550
:1010B0004A655B7C032B01D10A654A6543799C0034
:1010C000264B30331B594B6343799C00234B303BF9
:1010D0001B59CB63407980003858886320488030A2
:1010E000436A8C6BA34202D34B6D9B1C05E0436AA1
:1010F000CC6BA34206D94B6D5B1E4B650B6D5B1E23
:101100000B6505E00B6D9B1C0B654B6D5B1E4B650A
:101110004B6D002B00DA4A650B6D002B00DA0A6577
:10112000446A4D6B0C4BC033AC4205D3086A801C3B
:1011300008620120D872F0BD4C6B4D6B406A641B95
:10114000A4088442F7D9DA72086A401E0862086A65
:101150000028F0DC0A62F0BDA01C0020D8DF0108E6
:10116000001F0020E02E000030B50022012906D02B
:1011700002290BD003291AD0042934D031E0007899
:101180000A22010951430007000F29E001780A23D0
:101190000A0909075A43090F407851180209000744
:1011A0005A43000F101864225043421819E0017886
:1011B0000A230A0909075A43090F521841780A24D9
:1011C0000B0909076343090F8078591803090007C1
:1011D0006343000F1818642359438918144A24E004
:1011E0000A18104630BD01780A230A0909075A4334
:1011F000090F531841780A240A0909076243090FA5
:10120000511882780A25140912076C43120FC0780E
:10121000A218040900076C43000F201864246143DE
:10122000C918034B5A438918024A5043D8E70000B3
:1012300010270000A08601001CB50020124A694654
:1012400005231C1A145D0C54401CC0B20628F8D3A8
:101250000B460E480978C1705978417099788170B1
:101260000B4CD8782070197961705A79A2700CF003
:10127000FBFA6B469A78597818780CF0E5FA05492C
:10128000012008701CBD0000F43A0020C02000209E
:10129000543900202A1D00200022022902D00329EF
:1012A00003D009E04178090204E08178427809041A
:1012B0001202891800780A1810467047F8B5CA4C0F
:1012C000E07C274600256037012811D12646A0364C
:1012D000B06C401CB064B16CC448814208D3002299
:1012E0000421C34809F0F7FA55203871B564E57454
:1012F000617DBD4880300090012915D1BD4E706BD5
:10130000401C70630098807932214843716B884299
:101310000AD800220421B64809F0DDFA7563657524
:10132000B149012060398875207DAF4E40360128D3
:1013300018D130466030416C491C4164416CAB4867
:1013400081420FD300220421A94809F0C4FA0120E8
:1013500030703046603045642575009885720E20E7
:1013600011F034FCA04C403C207E00280BD12046DC
:10137000E030C16C491CC164C16C9F4A914202D3E8
:1013800001212176C564207E012804D112F02AFEB5
:1013900017F0A0FF257694496039C87F002802D055
:1013A000707B012808D19348026C521C0264026CC5
:1013B000924B9A4200D305648E48026B521C026322
:1013C000026B8F48824201D38A48056386486038A1
:1013D000C07F002810D18748816B491C8163816BD5
:1013E000962909D3856387480178491CC9B20170E1
:1013F000022901D901210170E07D002807D17D4833
:10140000416E491C4166416E652900D34566F07DF9
:1014100000280DD11021764809F058FA002807D08D
:101420007448816E491C8166816EC92900D3856626
:10143000A07B401CA073A07B1E2800D1A573607BFD
:10144000401C6073607B022800D16573207B401CC8
:101450002073207B032800D12573607A401C6072C2
:10146000607A042800D16572A07A401CA072A07A2C
:10147000052800D3A572207C401C2074207CC9283C
:1014800000D32574E07A401CE072E07A332800D162
:10149000E5725848426C5C498A4200D14564617DDE
:1014A000002902D1816C491C8164816C574A9142A8
:1014B00000D18564C16C491CC164C16C3D2900D157
:1014C000C564717B002902D0016D491C0165627CF5
:1014D00048498039012A02D14A6C521C4A64454A63
:1014E0008032926F4A4B92009A584B6C521C9A422F
:1014F00000D14D64617C022905D1217F012902D1EF
:10150000416D491C41650446406D0146FF392E3945
:1015100000D1656534486038807E01280DD11021E6
:10152000334809F0D3F9002807D1E06D401CE0658D
:10153000E16D3348814200D3E5652B486038807EF9
:1015400002280DD110212A4809F0C0F9002807D03F
:10155000A06D401CA065A16D2B48814200D1A565FE
:101560002C48816A491C8162C16A491CC162FF38EA
:101570000138416B491C4163307A012802D1A069CE
:10158000401CA061F079012802D1E069401CE061B3
:10159000707A012802D1606A401C606212482038CB
:1015A000007E012803D11C48C16B491CC163B87B74
:1015B000012803D11848016C491C0164787B01287B
:1015C00007D110210A4809F081F9002801D07D7364
:1015D000FD701148416C491C4164416CC82901D31C
:1015E000C8214164F8BD0000E01C00207017000015
:1015F00000080048801E002030750000B80B000075
:10160000DD0500000C000020C9AF0000A10F0000A4
:1016100038E0010880200020801F0020F0B56248DB
:1016200085B0807B01287DD15F4800248038014649
:101630006031049160315D4E5D4F40300391029006
:1016400010215C4809F042F9002804D15749D831EB
:101650000860486088605548A500D8304159405915
:1016600041435548415141593A6F914203D3715911
:101670004059081816E04059FFF71BF90022D243E1
:10168000FFF73EFA019100907059FFF70AF9019BAC
:10169000009AFFF768F8FFF789F870517059002831
:1016A00001DA002070517059796F884270D30020A0
:1016B00030607060B0603C4D803DA87E002803D053
:1016C000A87E022837D063E00DF0E0FE002C04D0A5
:1016D000012C08D0022C0CD011E037485C3800688F
:1016E00013F0FCF90AE034485C38406813F01AFB48
:1016F00004E031485C38806813F038FCB8620EF0C2
:1017000075FE049801214174029A05201074601C32
:101710001073E01D28770398007A012807D0032072
:10172000A87600E039E003984172697730E0002044
:101730006877A9762CE00320A876012068770DF061
:10174000A5FE002C04D0012C08D0022C0CD011E0F6
:1017500019485C38006813F0C1F90AE016485C3893
:10176000406813F0DFFA04E013485C38806813F037
:10177000FDFBB8620EF03AFE049901204874029A0B
:1017800005211174611C117303994872E01D2877BB
:10179000641CE4B2032C00D252E703488038817EF7
:1017A0008030C17505B0F0BD001D0020B42C0020B4
:1017B000801E002000080048382E0020F0B5FF4EA3
:1017C000FD4A3146344617462031D43FC0344036B6
:1017D00089B005287ED243007B449B885B009F44F0
:1017E00004001F024B048E06F908F348C06EF44D46
:1017F0003230E863207BEA6B4000801C5043286451
:10180000887FE96B4000001D48436864E86BFFF780
:1018100050F807910890E86BFFF74BF8E94AEA4B5C
:10182000FFF74AF8079B089AFFF746F8FEF7F4FF20
:10183000E1490867E86BE96B727A4843E349895CE0
:10184000C91C4843EB214843DB494867686C0E4696
:10185000803EB063B06BDE49884202D3B06B64381F
:10186000B063B06BAF21C900884202D34B200001A6
:10187000B063686CA864A86CFFF71BF8D54AD64B18
:10188000FFF71AF8D54AD64BFEF760FFFEF7C4FF04
:10189000A864286CE864E86CFFF70BF8CD4ACE4BDF
:1018A000FFF70AF8CD4ACE4BFEF750FFFEF7B4FF24
:1018B000E864686CF063E86C7063C44831214438B4
:1018C0000170C24932204439487035208870202088
:1018D000487100E0A2E10871C870A120A023022293
:1018E0006946800102F08DF9684640780102684639
:1018F000007808182086A02302226946B94802F021
:1019000080F968464078010268460078081830651A
:10191000B448A02302226946503002F072F96846AA
:1019200040780102684600780818A349D439088035
:10193000AC48A02302226946BE3002F062F9684634
:10194000407801026846007808189B49C839088029
:10195000A448A02302226946523002F052F9684698
:101960004078954C0102684600780818D03C2080E9
:101970009C48A02302226946C03002F042F9684622
:101980004078254601026846007808180C35288002
:101990009448A02302226946543002F032F9684686
:1019A00040780102684600780818261D30808D486E
:1019B000A02302226946C23002F023F9684640782B
:1019C00001026846007808182F1D38808548A0233A
:1019D00002226946563002F014F968464078010246
:1019E000684600780818211F48807E48A0230222FC
:1019F0006946FA3002F005F9684640780102684607
:101A000000780818291F48807648A02302226946DA
:101A1000583002F0F6F868464078010268460078CF
:101A2000081860806F48A02302226946FC3002F04B
:101A3000E8F868464078010268460078081868802F
:101A40006848A023022269465A3002F0DAF8684654
:101A50004078010268460078081870806148A02329
:101A600002226946FE3002F0CCF868464078010256
:101A700068460078081878805A48A02302226946F0
:101A80005C3002F0BEF868464078574C0102684668
:101A90000078081820605348A02302226946C43009
:101AA00002F0AFF8684640782546010268460078A3
:101AB0000818143528604B48A023022269465E307E
:101AC00002F09FF868464078264601026846007892
:101AD0000818283630604348A02302226946C630E1
:101AE00002F08FF868464078274601026846007881
:101AF00008183C373860A320A023022269468001E1
:101B000002F07FF8684640780102684600780918BC
:101B10002046503001603348A02302226946C83075
:101B200002F06FF8684640780102684600780918AC
:101B30002046643001602B48A023022269466230AF
:101B400002F05FF86846407801026846007808189D
:101B50006060A02302226946244802F052F86846D9
:101B60004078010268460078081868601D48A02384
:101B700002226946643002F044F868464078010267
:101B800068460078081870601848A0230222694649
:101B9000801C02F036F868464078010268460078FA
:101BA000081878600F48A02302226946663002F0C8
:101BB00028F8684640781BE0801E0020801C00202A
:101BC00000200020666666666666F23F2B210020D4
:101BD000E20400009FABADD85F76F23FE17A14AE2D
:101BE0004775774060280000142D00206029000010
:101BF0000102684600780918204650304160A02351
:101C000002226946FE4801F0FCFF68464078010266
:101C100068460078091820466430416009B0F0BD7C
:101C2000F848C06EF84D3F30E863207BEA6B400017
:101C3000801C50432864887FE96B4000001D4843A6
:101C40006864E86BFEF735FE07910890E86BFEF7D5
:101C500030FEEE4AEE4BFEF72FFE079B089AFEF78A
:101C60002BFEFEF7D9FDE7490867E86BE96B727A4E
:101C70004843E849895CC91C4843FF216031484317
:101C8000E0494867686C0E46803EB063686CA864A3
:101C9000A86CBD22920090422846DF49836C01D88F
:101CA000A0330BE04B256D01AB42836C02D8FF33B0
:101CB000193303E08B4202D8836CC8338364D24863
:101CC000436CD64DAB4203D1836CFF3B193B83641D
:101CD000036CC364C36C934202D8C16CA0310EE0A4
:101CE000C26C4B235B019A4203D8C16CFF3119319E
:101CF00005E0C26C8A4203D8C16CFF312D31C1644A
:101D0000016CC74A914203D1C16CFF311931C164E2
:101D1000426C7D21C9008A4206D2416CCA00511A28
:101D2000426CC90852090CE0426C436C521A92088A
:101D30005B1A1B09D218436C591A49095118E12240
:101D400092008918F163C06C7063B2483221443844
:101D50000170352141703021817020214171017164
:101D6000C170A120A02302226946800101F049FF31
:101D70006846407801026846007808182086A0234B
:101D800002226946A74801F03CFF684640780102FC
:101D90006846007808183065A248A02302226946E8
:101DA000183801F02EFF6846407801026846007836
:101DB000081838809B48A02302226946163801F093
:101DC00020FF684640788F4C01026846007808186A
:101DD000D03C20809348A02302226946143801F0A9
:101DE00010FF684640780102684600780818251DF3
:101DF00028808C48A02302226946123801F001FF96
:101E0000684640780102684600780818788085485E
:101E1000A02302226946103801F0F3FE684640789C
:101E2000010268460078081860807E48A0230222DC
:101E300069460E3801F0E5FE6846407801026846C2
:101E40000078081868807748A023022269460C3879
:101E500001F0D7FE68464078734C0102684600786E
:101E6000081820606F48A023022269460A3801F052
:101E7000C8FE684640782546010268460078081882
:101E8000283528606748A02302226946083801F0F7
:101E9000B8FE684640782646010268460078081871
:101EA000503630605F48A02302226946801F01F04F
:101EB000A8FE68464078010268460078081860600D
:101EC0005848A02302226946001F01F09AFE684686
:101ED0004078010268460078081868605148A023DD
:101EE00002226946801E01F08CFE6846407801029D
:101EF00068460078081870604148A02302226946AD
:101F00003A3801F07EFE684640783E4C0102684651
:101F100000780818C83C20803948A023022269466E
:101F2000383801F06EFE6846407801026846007855
:101F30000818251D28803248A02302226946363819
:101F400001F05FFE68464078010268460078081894
:101F50002E1D30802A48A02302226946801C01F0F1
:101F600050FE684640780102684600780818608094
:101F70002348A02302226946001D01F042FE684664
:101F80004078010268460078081868801C48A02341
:101F900002226946801D01F034FE68464078010245
:101FA00068460078081870801548A0230222694608
:101FB000343801F026FE684640781B4C0102684622
:101FC00000780818143420600D48A02302226946C6
:101FD000323801F016FE6846407825460102684610
:101FE00000780818283528600548A0230222694691
:101FF000303801F006FE684640780102684615E078
:1020000064290000801E0020002000205C8FC2F5A3
:10201000285CF33F2B210020C4090000AC0D000018
:10202000B80B000060280000142D00200078264620
:10203000081850363060A02302226946FE4801F09D
:10204000E0FD684640780102684600780818606044
:10205000F948A02302226946801C01F0D2FD68469F
:10206000407801026846007808186860F248A023AA
:1020700002226946001D41E2D06EF04DA030E863B7
:10208000207BEA6B4000801C50432864887FE96B0A
:102090004000001D48436864E86BFEF70AFC0791A6
:1020A0000890E86BFEF705FCE54AE64BFEF704FCFA
:1020B000079B089AFEF700FCFEF7AEFBE2490867B3
:1020C000E86BE96B727A4843E049895CC91C484374
:1020D000FF2169314843DC494867686CA864A86CF3
:1020E000052109028842A86C08D8FEF7E2FBD84A0D
:1020F000D84BFEF7E1FBD84AD84B15E04B214901FC
:102100008842A86C08D8FEF7D4FB0022D44BFEF717
:10211000D3FBD44AD44B07E0FEF7CBFBD34AD44BD6
:10212000FEF7CAFB0022D34BFEF710FBFEF774FB51
:10213000A864686CAF267601B04202D1A86C9638CC
:10214000A864286CE864E86C052109028842E86C00
:1021500008D8FEF7AEFBBE4ABE4BFEF7ADFBBE4A4B
:10216000BE4B15E04B2149018842E86C08D8FEF7C8
:10217000A0FB0022BA4BFEF79FFBBA4ABA4B07E01E
:10218000FEF797FBB94ABA4BFEF796FB0022B94B14
:10219000FEF7DCFAFEF740FBE864286CB04202D19F
:1021A000E86C9638E864686CA74E803EB063686C53
:1021B000F063E86C7063A548342144380170302125
:1021C00041708170202141710171C1709A48A02332
:1021D00002226946A23801F014FD684640780102E7
:1021E00068460078081820869348A0230222694692
:1021F0009A3801F006FD684640780102684600788A
:1022000008183065A023022269469B4801F0F9FCBA
:102210006846407801026846007808183880964879
:10222000A02302226946801C01F0EBFC684640783E
:1022300034460102684600780818503C20808E48D9
:10224000A02302226946001D01F0DBFC68464078AD
:102250000102684600780818251D28808648A023BA
:1022600002226946801D01F0CCFC684640780102DC
:1022700068460078081878807F48A02302226946C3
:10228000083001F0BEFC68464078010268460078DC
:10229000081860807848A023022269460A3001F0BD
:1022A000B0FC6846407801026846007808186880EB
:1022B0007148A023022269460C3001F0A2FC684656
:1022C00040786E4C010268460078081820606A4821
:1022D000A023022269460E3001F093FC6846407844
:1022E00025460102684600780818283528606248AB
:1022F000A02302226946103001F083FC6846407832
:1023000026460102684600780818503630605A4860
:10231000A02302226946123001F073FC684640781F
:10232000010268460078081860605348A023022222
:102330006946143001F065FC684640780102684641
:102340000078081868604C48A023022269461630BD
:1023500001F057FC6846407801026846007808188A
:1023600070603548A02302226946363801F049FCE6
:1023700068464078344C0102684600780818C83C2A
:1023800020802D48A02302226946343801F039FC10
:10239000684640780102684600780818251D2880A4
:1023A0002548A02302226946323801F02AFC6846FB
:1023B000407801026846007808182E1D30801E48BB
:1023C000A02302226946801D01F01BFC684640786C
:1023D000010268460078081860801748A02302228E
:1023E0006946083001F00DFC6846407801026846F5
:1023F0000078081868801048A023022269460A3035
:1024000001F0FFFB68464078010268460078081832
:1024100070800948A02302226946303801F0F1FBA0
:1024200068464078154C0102684600780818143454
:102430002060A023022223E06C290000002000205D
:102440005C8FC2F5285CF33F801E00202B2100200A
:1024500071AC8BDB6800EB3F986E1283C0AA3A40E8
:102460000000E23FE17A14AE47957D4016FBCBEECB
:10247000C9C3DA3F001E884068280000142D0020E0
:102480006946FE4801F0BDFB6846407825460102DA
:1024900068460078081828352860A520A023022265
:1024A0006946800101F0ADFB68464078264601028E
:1024B00068460078081850363060F048A0230222A1
:1024C00069463A3001F09DFB684640780102684653
:1024D000007808186060E948A023022269463C3071
:1024E00001F08FFB684640780102684600780818C2
:1024F0006860E248A023022269463E3069E2E04873
:10250000C06EE04DFC30E863207BEA6B4000801C2D
:1025100050432864887FE96B4000001D484368648D
:10252000E86BFEF7C6F907910890E86BFEF7C1F972
:10253000D54AD64BFEF7C0F9079B089AFEF7BCF9BF
:10254000FEF76AF9CE490867E86BE96B727A48438F
:10255000CF49895CC91C4843FF214B314843C849D6
:102560004867686C80398863686CC863686CA86465
:10257000A86CC84988420BD8A86CFEF79AF9C64ADD
:10258000C64BFEF799F9C64AC64BFEF7ECF80EE0CB
:10259000A96CC54881420DD8A86CFEF78AF9C34AD8
:1025A000C34BFEF789F9C34AC34BFEF7CFF8FEF7DA
:1025B00033F902E0A96CC1480818A864696CC04EE0
:1025C000B14204D1A86C7D21C900401AA864696C8D
:1025D000BC48814204D1A96C7D200001081AA8647E
:1025E000696CB948814204D1A96C1920C001081A4C
:1025F000A864286CE864E86CA64988420BD8E86CAB
:10260000FEF757F9A44AA54BFEF756F9A44AA54B85
:10261000FEF7A9F80EE0E96CA34881420DD8E86CFA
:10262000FEF747F9A14AA24BFEF746F9A14AA24B91
:10263000FEF78CF8FEF7F0F802E0E96C9F48081806
:10264000E864296CB14204D1E86C7D21C900401ACC
:10265000E864296C9B48814204D1E96C7D2000012B
:10266000081AE864296C9848814204D1E96C192061
:10267000C001081AE864E86C814D803D68638448B5
:10268000362144380170332141703021817020217E
:1026900041710171C1707948A023022269467238E4
:1026A00001F0AFFA684640780102684600780818E1
:1026B00020867248A023022269466A3801F0A1FAF6
:1026C000684640780102684600780818286551205D
:1026D000A02302226946C00101F093FA68464078BF
:1026E000010268460078081838806448A023022256
:1026F0006946BC3801F085FA684640782C460102EC
:10270000684600780818503C20805C48A0230222CC
:102710006946BA3801F075FA6846407801026846A1
:1027200000780818251D28805448A02302226946F5
:10273000B83801F066FA68464078010268460078C9
:10274000081878804D48A02302226946B63801F067
:1027500058FA684640780102684600780818608098
:102760004648A02302226946B43801F04AFA684676
:102770004078010268460078081868803F48A02326
:1027800002226946B23801F03CFA684640784F4C64
:10279000010268460078081820603848A023022209
:1027A0006946B03801F02DFA6846407825460102A6
:1027B000684600780818283528603048A02302228F
:1027C0006946AE3801F01DFA684640782646010297
:1027D000684600780818503630602848A023022246
:1027E0006946AC3801F00DFA684640780102684647
:1027F0000078081860602148A02302226946AA38A0
:1028000001F0FFF968464078010268460078081830
:1028100068601A48A02302226946A83801F0F1F93D
:1028200068464078010268460078081870601348CE
:10283000A02302226946001D01F0E3F968464078B2
:102840000F4C0102684600780818C83C20800B48ED
:10285000A02302226946801D01F0D3F96846407822
:102860000102684600780818251D28800348A02327
:1028700002226946083001F0C4F929E03E2900002F
:10288000801E0020002000205C8FC2F5285CF33FF2
:102890002B21002098080000832F4CA60A46E33F16
:1028A0004C37894160D54440C40E0000273108AC44
:1028B0001C5AD83FF6285C8FC2D17E4042F5FFFFFC
:1028C0009C180000881D000074220000142D0020B8
:1028D0006846407801026846007808182E1D30804E
:1028E000A02302226946FE4801F08BF96846407831
:1028F000010268460078081860805320A023022255
:102900006946C00101F07DF96846407801026846D9
:10291000007808186880F248A02302226946001D4A
:1029200001F06FF96846407801026846007808189F
:102930007080EB48A02302226946363801F061F925
:1029400068464078E74C0102684600780818206025
:10295000E348A02302226946343801F052F9684660
:102960004078254601026846007808182835286016
:10297000DB48A02302226946323801F042F968465A
:1029800040782646010268460078081850363060C4
:10299000D348A02302226946801D01F032F968461F
:1029A000407801026846007808186060CC48A0238F
:1029B00002226946083001F024F968464078010295
:1029C0006846007808186860C548A0230222694656
:1029D0000A3032E2C448C06EC44DFF304130E86373
:1029E000207BEA6B4000801C50432864887FE96BA1
:1029F0004000001D48436864E86BFDF75AFF0791EB
:102A00000890E86BFDF755FFB94ABA4BFDF754FF44
:102A1000079B089AFDF750FFFDF7FEFEB2490867D5
:102A2000E86BE96B727A4843B349895CC91C484337
:102A3000FF2141314843AC494867686C0E46803EEF
:102A4000B063686CF063E86C7063686CA864A86C31
:102A5000E12149018842A86C0DD8FDF72AFFA74A59
:102A6000A74BFDF729FFA24AA64B5242FDF76EFE87
:102A7000FDF7D2FE09E07D2189018842A86C02D8C9
:102A80004910401A01E0A0494018A864686C4B2125
:102A9000C901884204D0686CAF218901884203D102
:102AA000A86C9A494018A864286CE864E86C9849B6
:102AB00088420ED8E86CFDF7FCFE964A964BFDF76F
:102AC000FBFE8B4A954B5242FDF740FEFDF7A4FEFC
:102AD000E864E86CFDF7EDFE914A924BFDF7ECFEE1
:102AE0008C4A914BFDF732FEFDF796FEE864824872
:102AF00038214438017030214170817020214171AA
:102B00000171C1707648A02302226946B03801F0F5
:102B100078F86846407801026846007808182086F0
:102B20006F48A02302226946A83801F06AF8684677
:102B30004078010268460078081830656848A0238C
:102B400002226946E63801F05CF8684640780102E6
:102B500068460078081838806148A0230222694638
:102B6000E43801F04EF8684640785F4C0102684650
:102B700000780818D03C20805948A02302226946DA
:102B8000E23801F03EF86846407801026846007875
:102B90000818251D28805248A02302226946E038E3
:102BA00001F02FF86846407801026846007808185E
:102BB00078804B48A02302226946DE3801F021F8D4
:102BC00068464078010268460078081860804448EA
:102BD000A02302226946DC3801F013F868464078E9
:102BE000010268460078081868803D48A023022248
:102BF0006946DA3801F005F868464078394C010238
:102C0000684600780818143C20603548A02302224A
:102C10006946D83800F0F5FF68464078254601023D
:102C2000684600780818283528602D48A02302221D
:102C30006946D63800F0E5FF68464078264601022E
:102C4000684600780818503630602548A0230222D4
:102C50006946D43800F0D5FF6846407801026846DE
:102C60000078081860601E48A02302226946D23806
:102C700000F0C7FF684640780102684600780818EF
:102C800068601748A02302226946D03800F0B9FFD7
:102C9000684640780102684600780818706010485D
:102CA000A02302226946303800F0ABFF6846407826
:102CB0000D4C0102684600780818C83C208008487E
:102CC000A023022269462E3800F09BFF6846407818
:102CD0000102684600780818251D2880A02325E0F9
:102CE0007E290000282D0020801E002000200020CA
:102CF0005C8FC2F5285CF33F2B2100204A7B832F99
:102D00004CA6DE3FD7AB7540F5ECFFFFAEFCFFFFF6
:102D1000581B0000666666666666DE3FD75B7440D9
:102D2000567DAEB6627FC93F66EE9D40022269467F
:102D3000474800F066FF6846407801026846007820
:102D400008182E1D30804248A023022269463830E0
:102D500000F057FF6846407801026846007808187E
:102D600060803B48A023022269463A3000F049FFC8
:102D70006846407801026846007808186880344840
:102D8000A023022269463C3000F03BFF68464078B1
:102D9000010268460078081870802D48A02302229E
:102DA0006946801C00F02DFF68464078294C0102DE
:102DB00068460078081820602548A023022269464A
:102DC000001D00F01EFF6846407825460102684657
:102DD00000780818283528601D48A023022269467B
:102DE000801D00F00EFF68464078264601026846C6
:102DF00000780818503630601548A0230222694632
:102E00003E3000F0FEFE68464078010268460078D9
:102E1000081860600E48A02302226946403000F086
:102E2000F0FE68464078010268460078081868603D
:102E30000748A02302226946423000F0E2FE6846BD
:102E400040780102684600780818706009B0F0BD4B
:102E500052290000282D002030B538250E49302297
:102E60002024030010F054FF051504080C1514006D
:102E700032200870352006E0342008704A7003E0E4
:102E800036200870332048708A704C710C71CC70F9
:102E900030BD0D70F2E70000E7200020F8B5224DAC
:102EA00028792E46C0363F2808D8F079012805D168
:102EB00006F094FF06F0ECFF07F044F82879401C78
:102EC0002871287901270024102804D1F0790028DE
:102ED00001D1F7712C712879402823D3134E7168E2
:102EE00013480160B1684160F168816000F06CF9DD
:102EF00000F0A6F900F0E0F92C717460B460F460A1
:102F000009494031C878401CC870C878642809D184
:102F10003046803884604460C460446104618461E8
:102F2000CC700F71F8BD0000A01C0020801F002095
:102F30002C2E0020F8B5354807F0DAFC344DA87D7A
:102F4000012861D12E46A03E707E0A285CD1314C0A
:102F5000206811F0C3FD2746503F3860606811F0CB
:102F6000E1FE7860A06812F001F8B8602A480168B4
:102F70002268914201D22168016028490A682368C9
:102F80009A4201D922680A60426863689A4201D273
:102F9000626842604A6863689A4201D962684A601E
:102FA0008268A3689A4201D2A26882608868A26897
:102FB000904201D9A06888601948C16B491CC1635F
:102FC000C16BFF22F6320027914213D1C763104C28
:102FD0002034A07D401CC0B209F0F6F8A07D401C52
:102FE000C0B209F00BF9A07D401CC0B2A075032847
:102FF00000D3A77506482038C17F012901D1697423
:10300000C7777776FEF70AFBF8BD00007C3A002010
:10301000201D0020DC2D002010390020BC210020C4
:10302000801E0020F8B53A4E044630780027394D0E
:10303000002817D1204632382860322C00D22F6069
:103040007D2C01D94B20286028686946000A087049
:1030500028684870A02302222F4809F011FD30781B
:10306000FEF7ACFB3078012817D120463F382860A6
:103070003F2C00D22F60FA2C01D9BB202860286891
:103080006946000A087028684870A0230222224876
:1030900009F0F6FC3078FEF791FB3078022819D160
:1030A0002046A0382860A02C00D22F60FF2091304D
:1030B000844201D9F020286028686946000A087017
:1030C00028684870A0230222134809F0D9FC307800
:1030D000FEF774FB3078032819D12046FC382860AD
:1030E000FC2C00D22F600D48844202D9FF207B3097
:1030F000286028686946000A087028684870A0237C
:103100000222054809F0BCFC3078FEF757FBF8BDF9
:10311000BD1C0020EC1E00200429000076020000E7
:1031200070B50020234902460A54401CC0B203284F
:10313000FAD3214D2878214C002807D121680A2094
:10314000414303221B48323100F08EFA28780128CF
:1031500008D120680A21484319490322411815481B
:1031600000F082FA2878022809D120680A21484311
:1031700019218901411803220E4800F075FA2878B8
:10318000032808D120680A2148430E490322411828
:10319000084800F069FA2878042809D120680A2133
:1031A00048431921C90141180322024800F05CFA82
:1031B00070BD00008F1D0020BD1C0020EC1E0020F3
:1031C00076020000D809000070B51948407901283E
:1031D00015D1174A803A107A164980000858FF39ED
:1031E00035390865124CC034A36FC81FF938012B5C
:1031F00006D00169002902DD0169491E016170BD27
:103200000023A3670469A41C046104690D6DAC422A
:10321000F5DB03610620107401201073486C064929
:10322000886201220821054807F055FB70BD0000A7
:10323000401D002034210020801E0020000800488E
:1032400070B519484079012815D1174A803A107A8B
:10325000164980000858FF3935390865124CC034CA
:10326000E36FC81FF938012B06D04169002902DD40
:103270004169491E416170BD0023E3674469A41C94
:10328000446144690D6DAC42F5DB43610620107466
:1032900002201073486C0649886201220821054803
:1032A00007F019FB70BD0000401D002034210020F4
:1032B000801E00200008004870B51748407901289A
:1032C00013D1154A803A107A144980000858144BDB
:1032D000186514490C6808468030012C06D08169B5
:1032E000002902DD8169491E816170BD00240C60E6
:1032F0008569AD1C856185691E6DB542F5DB84610C
:103300000620107403201073586C88620122082173
:10331000054807F0E0FA70BD401D00203421002070
:1033200000200020801E00200008004810B5024840
:1033300007F03AF910BD0000383A002010B50446F5
:103340000068054940181421FCF7D3FF8000206471
:103350000248E06310BD0000F8FFFDBF000002401E
:1033600030B5056C0124AC40C56B6C6004686360CB
:103370004368102B036803D099600068C26030BDB9
:103380009A600068C16030BDF0B587B0624807F050
:10339000AFFAA02301226946604800F032FC68467B
:1033A0005F4D007868715D48A02301226946EF30C7
:1033B00000F027FC68460078A8715848A023052231
:1033C0005849C01D00F01DFC10F084FE534EA02390
:1033D000F53601226946304600F013FC68462C465B
:1033E00000782D3C00272070012810D1204613388A
:1033F00087724C49A023C878012280088000C870D9
:103400004648C91C0A3009F03BFB10F063FE4449F2
:103410002770A02301222D39304609F031FBA0236B
:1034200002226946404800F0ECFB684600783F4CB9
:103430000102684640780818E0663848A023012257
:103440006946F03000F0DDFB6846007828733348A9
:10345000A02301226946F13000F0D3FB304D6846CD
:103460000078A03DA8772D48A02301226946F230BC
:1034700000F0C7FB68462E46007820363072274899
:10348000A02301226946F33000F0BBFB68460078B8
:103490007072707A072800D977722048A023012221
:1034A00069460C3000F0ADFB684600786877687FAD
:1034B000042801D901206877687F002804D1E06ED4
:1034C0004C2801D34C20E066687F012804D1E06ECF
:1034D000BB2801D3BB20E066687F022804D1E06EE0
:1034E000F02801D3F020E066687F032805D1E16E63
:1034F000FF207B30814200D3E066687F042805D13D
:10350000E16EFF20E130814200D3E066687FFEF784
:1035100055F907B0F0BD00007C3A00201B270000E1
:10352000401D0020DD20002004290000801E002016
:10353000184900208875487517494863C863174AB9
:10354000526A0A638A6316498860486008600C31D1
:10355000886048600860144A1249916051601160A7
:103560000C3A9160516011600D4A2832D060906031
:103570005060106010329060506010600A480C304B
:10358000C1608160416001601030C1608160416054
:1035900001607047401D002080200020001F002097
:1035A000D838002060EA0000A021002010B526488D
:1035B00007F09EF92548817A012944D100248472BC
:1035C00001222349234807F015FD01222249214801
:1035D00007F0EEFC2048214AC1781160204A41786A
:1035E0001170204A194B8078107020335974D874A8
:1035F0001A7D904202D1987C814224D0FFF798FF37
:10360000D87C1875587C987410486038C17A0329A2
:1036100009D0C17A022909D0C17A012909D0C07A1A
:10362000002809D00CE04B20C00107E04B208001AE
:1036300004E04B20400101E04B2000010AF072F849
:1036400002488038847010BD7C3A0020201D002084
:10365000543900208C3A0020C0200020BC000020FB
:10366000B0000020B1000020F7B57D25ED0084B04A
:103670000446022A05D0554F032A20D0042A55D0EB
:10368000A1E029460598FCF734FE0546084664216A
:10369000FCF72FFE064664210598FCF72AFE084633
:1036A0000A21FCF726FE07460A210598FCF721FEB1
:1036B00038014018207028018019607083E0394675
:1036C0000598FCF716FE0646414F08463946FCF7BA
:1036D00010FE019039460598FCF70BFE08462F4670
:1036E0002946FCF706FE054639460598FCF701FE1B
:1036F00008466421FCF7FDFD074664210598FCF7A8
:10370000F8FD08460A21FCF7F4FD00900A2105980F
:10371000FCF7EFFD00980001401820702901C8193E
:103720006070019831010818A0704CE02949059893
:10373000FCF7DFFD009008462749FCF7DAFD064656
:1037400025490598FCF7D5FD08463946FCF7D1FD1B
:10375000029039460598FCF7CCFD1D4F08463946C6
:10376000FCF7C7FD039039460598FCF7C2FD0846F3
:103770002F462946FCF7BDFD054639460598FCF75E
:10378000B8FD08466421FCF7B4FD0746642105989E
:10379000FCF7AFFD08460A21FCF7ABFD01900A21BA
:1037A0000598FCF7A6FD019800014018207028013B
:1037B000C01960700298010103980818A070009861
:1037C00031010818E070002007B0F0BDA0860100AC
:1037D000102700008096980040420F0010B549481D
:1037E00002694949CA7002794A7042798A708279BD
:1037F00046490A70C2794A70027A8A700169444A5D
:1038000009093031117001690907090F3031517010
:1038100000219170027913093E4A30331370037905
:103820001B071B0F303353709170427913093A4ACA
:103830003033137043791B071B0F30335370917073
:1038400082791309354A3033137083791B071B0FB4
:10385000303353709170C2791309314A3033137089
:10386000C3791B071B0F303353709170027A130911
:103870002C4A30331370007A0007000F303050703C
:103880002048917032220B300270302242708170D9
:1038900002464021052012F029FA1D4A4C2105203C
:1038A00012F024FA204A5721052012F011FB194A80
:1038B0006021052012F01AFA1B4A6C21052012F033
:1038C00007FB154A7121052012F010FA134A47210F
:1038D000072012F00BFA15A306225221002008F04F
:1038E000EDFC0F4A5921072012F000FA0FA306221F
:1038F0006421002008F0E2FC0A4A6C21072012F043
:10390000F5F910BDD0190020C02000205439002046
:103910002E0000203100002034000020370000205D
:103920003A0000203D000020961900203A000000D7
:1039300010B5002143A30422084608F0BFFC012271
:103940004249434807F056FB01224249404807F0EC
:103950002FFB40494048CA7802614A780271897851
:1039600041713A490A7882714A78C2718978017244
:1039700001693A4A09093031117001690907090FD3
:10398000303151700021917002791309344A30337B
:10399000137003791B071B0F3033537091704279FA
:1039A0001309304A3033137043791B071B0F303330
:1039B00053709170827913092B4A303313708379D5
:1039C0001B071B0F303353709170C2791309274ABC
:1039D00030331370C3791B071B0F30335370917052
:1039E000027A1309224A30331370007A0007000F5D
:1039F000303050701848917032220B3002703022F3
:103A00004270817002464021052012F06FF9134A7E
:103A10004C21052012F06AF9164A5721052012F0B0
:103A200057FA0F4A6021052012F060F9114A6C2103
:103A3000052012F04DFA0B4A7121052012F056F9BB
:103A400010BD000020C8D5C6DA3A00005439002065
:103A50008C3A0020C0200020D01900202E00002029
:103A60003100002034000020370000203A00002000
:103A70003D0000209619002010B5002141A3062228
:103A8000084608F01BFC01224049414807F0B2FA01
:103A9000012240493E4807F08BFA3E493E48CA7829
:103AA00002614A7802718978417138490A788271D5
:103AB0004A78C271897801720169384A090930313E
:103AC000117001690907090F30315170002191709F
:103AD00002791309324A3033137003791B071B0F25
:103AE000303353709170427913092E4A303313707A
:103AF00043791B071B0F3033537091708279130980
:103B0000294A3033137083791B071B0F30335370EE
:103B10009170C2791309254A30331370C3791B079A
:103B20001B0F303353709170027A1309204A3033DF
:103B30001370007A0007000F3030507016489170F3
:103B400032220B300270302242708170164A4721B7
:103B5000072012F0CBF817A306225221002008F00C
:103B6000ADFB124A5921072012F0C0F811A306221A
:103B70006421002008F0A2FB0D4A6C21072012F0FE
:103B8000B5F810BD20CAB1BCE43A00005439002099
:103B90008C3A0020C0200020D01900202E000020E8
:103BA0003100002034000020370000203A000020BF
:103BB0003D0000203A00000070B516460D46044650
:103BC0001CE008F05DFA304608F026FA08F0A0FA8A
:103BD0002004000E08F020FA08F09AFAE0B208F08B
:103BE0001BFA08F095FAFF2008F016FA08F090FA90
:103BF00008F06AFA022011F049FF641C6D1EE0D241
:103C000070BDFFB581B017460D460646002408E09A
:103C1000B0B2761C0499FDF7BDF9641C2870E4B2BB
:103C20006D1CBC42F4D305B0F0BD000070B5054674
:103C3000002401200DF0DAFF1449012048728D7232
:103C400000200A5C401C1219C0B2D4B20B28F8D371
:103C5000CC721620087300200D4AFE211154401C1E
:103C6000C0B20428FAD30B48007801280CD10A4CC2
:103C7000042223460649094808F0DEF823460D22AF
:103C80000249064808F0D8F870BD000068390020E5
:103C9000A4390020A21C0020FFFF00003C3B0020B4
:103CA00072B6FEE710B5AE4886B0C17CFF2908D1D8
:103CB000817CFF2905D1417CFF2902D1017CFF29AC
:103CC00003D0C17C03290ED016E0A6480168491C28
:103CD0000160016803226846FFF7C6FCA0230322A7
:103CE0006946A1485BE0817C812905D1417C00299E
:103CF00002D1017CFF2903D0C17C032952D05AE0B4
:103D000000246846447004709748A0230222694644
:103D1000C01C08F0B5FE6846447004709248A023A9
:103D200002226946401D08F0ABFE684644700470EC
:103D30008D48A02302226946C01D08F0A1FE6846F6
:103D4000447004708848A02302226946093008F0B4
:103D500097FE6846447004708348A0230222694697
:103D60000B3008F08DFE6846447004709D20A0233F
:103D700002226946800108F083FE684644700470A0
:103D80007948A023022269460F3008F079FE684680
:103D9000447004707448A02302226946113008F070
:103DA0006FFECEE0817C822905D1417C002902D1C1
:103DB000017CFF297ED0C17C032908D1817C822926
:103DC00005D1417C012902D1017CFF2972D0C17C3F
:103DD000032908D1817C822905D1417C022902D1A5
:103DE000017CFF2966D0C17C032908D1817C82290E
:103DF00005D1417C032902D1017CFF295AD0C17C25
:103E0000032908D1817C822905D1417C042902D172
:103E1000017CFF294ED0C17C032908D1817C8229F5
:103E200005D1417C052902D1017CFF2942D0C17C0A
:103E3000032908D1817C822905D1417C062902D140
:103E4000017CFF297DD0C17C032908D1817C832995
:103E500005D1417C002902D1017CFF2971D0C17CB0
:103E6000032908D1817C832905D1417C012902D114
:103E7000017CFF2965D0C17C032908D1817C83297D
:103E800005D1417C022902D1017CFF2959D0C17C96
:103E9000032908D1817C832905D1417C032902D1E2
:103EA000017CFF294DD0C17C03290AD1817C832963
:103EB00007D100E045E0417C042902D1017CFF29C3
:103EC0003FD0C17C032908D1817C832905D1417C65
:103ED000052902D1017CFF2933D0C17C032908D1F7
:103EE000817C832905D1417C062902D1017CFF29EF
:103EF00027D0C17C032908D1817C882905D1417C48
:103F0000002902D1017CFF291BD0C17C032908D1E3
:103F1000817C8D2905D1417C002902D1017CFF29BA
:103F20000FD0C17C032908D1817C8E2905D1417C29
:103F3000002902D1017CFF2903D0C17C032903D0D1
:103F40000BE0002006B010BD817C8F2905D1417C9B
:103F5000002902D1007CFF28F3D00120F2E7000005
:103F600058250020AC1F002033270000F8B58C4CEA
:103F7000A07B072808D18B48006C8B49884203D16D
:103F8000002021464039C877A07B854F0126203F7D
:103F90003D468035072804D1B87B142801D1AE7581
:103FA000AE73A07B102803D1F87A322800D12E7589
:103FB000A07B082803D1787B012800D1AE74A17BB7
:103FC0000A20232903D1B97A042900D1E874A17BFE
:103FD000232903D1397CC82900D12876A07B272842
:103FE00004D17048406E642800D1FE75A07B28285B
:103FF0000DD16C48806EC82809D110216B4806F09D
:1040000065FC002803D0EE75A87E401CA876A07B36
:10401000042804D16348C06C3C2800D1BE75A17B44
:104020005F4820300090052907D15E48016D7D2052
:10403000C000814201D100988675A07B584980312B
:1040400006280FD157488030806F594A8000125897
:104050000846C030436C9A4204D102227A7400228E
:104060004264CE72A07B07280CD14E4A506D0346A5
:10407000FF3B2D3B06D100207874887211468031B9
:1040800088675065A07B09280CD14648C26D7D2108
:10409000C9008A4206D1424A0221403A9176002163
:1040A000C165BE76A07B0A2809D13E48816D414A90
:1040B000914204D100218165394840388176A17B45
:1040C0003D480C2906D1816A426A914202D1002101
:1040D00081622E74A17B0D2905D1C16AFA2902D112
:1040E0000021C162AE72A07B344F0E2807D1786BDD
:1040F0002D49491C884202D1002078632675A07B97
:104100000F2811D127488169426991420CD1297A3F
:10411000012909D10021297281611021234806F06B
:10412000D5FB002800D02E71A07B102811D11D488E
:10413000C169026991420CD1E979012909D10021B3
:10414000E971C1611021194806F0C0FB002800D1B7
:10415000EE70A07B11280BD11248416A026A91428D
:1041600006D1697A012903D10021697241626E7119
:10417000A07B12280BD1F86B0146FF39F53906D127
:10418000002020760649403188720098C675A07BD1
:10419000132804D1386C0A49884200D1EE72F8BD68
:1041A000C01C0020801E0020B70B00000008004843
:1041B00038E00108C8AF000080200020801F0020E8
:1041C000EE020000F0B585B00FF00CFFA023042232
:1041D00096499748FFF715FD002296A31146104611
:1041E00008F06CF800219EA30422084608F066F847
:1041F0008E4968460A7800243032027044704A784A
:104200003032027144718A78303202724472C97855
:1042100002463031017344736021032011F066FDC2
:1042200001AA6821032011F061FD02AA7021032078
:1042300011F05CFD03AA7821032011F057FD894895
:10424000894B01780A07120F30321A701A465470DF
:104250000909864A3031117011464C704178844BFF
:104260000A07120F30321A701A4654700A0981492F
:1042700030320A704C7081787F4A0B071B0F303345
:10428000137054700A097D4930320A704C70C1783D
:104290007B4A0B071B0F3033137054700A0979499E
:1042A00030320A704C700179774A0B071B0F30339C
:1042B000137054700A09754930320A704C70427993
:1042C00073491607360F334630330B7015092B46EA
:1042D0004C7030336F4A13706F4B54701B786F4CB7
:1042E000012B02D127683D4325606D4D2F78402F6B
:1042F00005D0102F03D0202F04D1032B02D2664FFC
:104300005B1C3B702378674F1B071B0E334318075A
:10431000000F7B713030087000204870190930316F
:10432000117050705B4A3821052011F059FD584A30
:104330003E21052011F0DAFC544A4421052011F0F9
:10434000D5FC514A4A21052011F0D0FC4D4A50219C
:10435000052011F0CBFC4A4A5621052011F0C6FC7D
:10436000464A5C21052011F0C1FC434A6221052028
:1043700011F0BCFC3F4A6821052011F0B7FC3C4A13
:104380006E21052011F0B2FC384A7421052011F08D
:10439000ADFC354A7A21052011F0A8FC42480A21DB
:1043A000007806224843414943184C21002007F079
:1043B00085FF2878012620281AD13748007803285D
:1043C00029D12848A0230178017041784170817873
:1043D0008170C178C17001790171797941710146AB
:1043E0000622334808F04CFB324820602A48067009
:1043F0002878102802D0402806D00CE02648017802
:10440000032908D12C4904E023480178032902D16B
:1044100028492160067029480078294980004218FF
:104420007F21012011F09AFC05B0F0BD680000204A
:10443000482A000020BACFD5A2D1D3CAB13A0D2064
:10444000D0DEB8C4C3DCC2EB3A0D20CDA8D0C5B5D0
:10445000D8D6B73A0D20B6CCBDD3C4A3CABD3A0056
:104460003E000000ED2000201A0000200E00002079
:104470001C000020100000201E0000201200002060
:104480002000002014000020220000201600002040
:104490002400002018000020D0190020AC1E0020AD
:1044A0000900002046250020EF1C00205E1C002093
:1044B0002D2700000021030000C10300651D00201E
:1044C0001C250020F0B585B00FF08CFDA023042240
:1044D00096499748FFF795FB002296A31146104690
:1044E00007F0ECFE00219EA30422084607F0E6FE3A
:1044F0008E4968460A7800243032027044704A7847
:104500003032027144718A78303202724472C97852
:1045100002463031017344736021032011F0E6FB41
:1045200001AA6821032011F0E1FB02AA70210320F7
:1045300011F0DCFB03AA7821032011F0D7FB894896
:1045400000788949800042187F21012011F006FC83
:104550008648874B0178894F0A07120F30321A704C
:104560001A4654700909834A3031117011464C7053
:104570004178814B0A07120F154630351D705C706B
:104580000B0930333B707C7085787D4B2E07360FDE
:1045900030361E705C702D097A4B30351D705C70A2
:1045A000C578794B2E07360F30361E705C702D099A
:1045B000764B30351D705C700579754B2E07360FC4
:1045C00030361E705C702D09724B30351D705C707A
:1045D0004379714D1E07360F30362E706C701D09F1
:1045E0006E4B30351D705C706D4B6E4C1B78012B23
:1045F00002D125682A4322606B4D2A78402A05D0D3
:10460000102A03D0202A04D1032B02D2644A5B1C57
:104610001370227808091207120F00010243634E3B
:104620001007000F54497270303008700020487035
:104630001109303139707870584A3821052011F04D
:1046400055FB554A3E21052011F050FB514A4421AB
:10465000052011F04BFB4E4A4A21052011F046FB84
:104660004A4A5021052011F041FB474A56210520B6
:1046700011F03CFB434A5C21052011F037FB404A16
:104680006221052011F032FB3C4A6821052011F01F
:104690002DFB394A6E21052011F0A2FB354A742109
:1046A000052011F023FB324A7A21052011F01EFB70
:1046B0003F480A210078062248433E4943184C21CE
:1046C000002007F0FBFD2878012720281AD1344864
:1046D0000078032822D12548A02301780170717841
:1046E000417081788170C178C1700179017141791F
:1046F000417101460622304808F0C2F92F48206077
:1047000027480770287810280AD0402806D1244866
:104710000178032902D129492160077005B0F0BD55
:104720001F4801780329F9D12549F5E768000020E1
:10473000482A000020BACFD5A2D1D3CAB13A0D2061
:10474000D0DEB8C4C3DCC2EB3A0D20CDA8D0C5B5CD
:10475000D8D6B73A0D20B6CCBDD3C4A3CABD3A0053
:104760003E000000651D00201C250020ED200020DB
:104770001A0000200E0000201C0000201000002065
:104780001E00002012000020200000201400002045
:104790002200002016000020240000201800002025
:1047A000D0190020AC1E0020090000204625002062
:1047B000EF1C00205E1C00202D27000000B103002C
:1047C00000910300F0B585B00FF00CFCA02304228B
:1047D00096499748FFF715FA002296A3114610460E
:1047E00007F06CFD00219EA30422084607F066FD39
:1047F0008E4968460A7800243032027044704A7844
:104800003032027144718A78303202724472C9784F
:1048100002463031017344736021032011F066FABF
:1048200001AA6821032011F061FA02AA7021032075
:1048300011F05CFA03AA7821032011F057FA894895
:1048400000788949800042187F21012011F086FA02
:104850008648874D0178874F0A07120F1346303379
:104860002B702B465C7009090B4630333B703B467E
:104870005C704578804B2E07360F30361E705C70AA
:104880002D097E4B30351D705C7085787C4B2E0772
:10489000360F30361E705C702D097A4B30351D7026
:1048A0005C70C578784B2E07360F30361E705C7002
:1048B0002D09764B30351D705C700579744B2E07D1
:1048C000360F30361E705C702D09724B30351D70FE
:1048D0005C704379704D1E07360F30362E706C7049
:1048E0001D096E4B30351D705C706D4B6D4C1B7827
:1048F000012B02D12568294321606B4D297840297D
:1049000005D0102903D0202904D1032B02D26449F9
:104910005B1C0B702178654E0907090E11430807CF
:104920003170000F524A3030107000205070090969
:10493000303139707870594A3821052011F0D6F994
:10494000554A3E21052011F0D1F9524A4421052053
:1049500011F0CCF94E4A4A21052011F0C7F94B4A13
:104960005021052011F0C2F9474A5621052011F0C7
:10497000BDF9444A5C21052011F0B8F9404A622192
:10498000052011F0B3F93D4A6821052011F0AEF978
:10499000394A6E21052011F0A9F9364A7421052003
:1049A00011F01EFA324A7A21052011F09FF9404891
:1049B0000A210078062248433E4943184C21002032
:1049C00007F07CFC2878012720281AD13448007889
:1049D000032822D1254831780170417841708178CF
:1049E0008170C178C17001790171417941710146CD
:1049F000A0230622304808F043F8304820602848B9
:104A00000770287810280AD0402806D12448017859
:104A1000032902D129492160077005B0F0BD204863
:104A200001780329F9D12649F5E700006800002044
:104A3000482A000020BACFD5A2D1D3CAB13A0D205E
:104A4000D0DEB8C4C3DCC2EB3A0D20CDA8D0C5B5CA
:104A5000D8D6B73A0D20B6CCBDD3C4A3CABD3A0050
:104A60003E000000651D00201C250020ED200020D8
:104A70001A0000200E0000201C0000201000002062
:104A80001E00002012000020200000201400002042
:104A90002200002016000020240000201800002022
:104AA000D0190020AC1E002009000020462500205F
:104AB000EF1C00205E1C00202D27000000C1030019
:104AC00000010500F0B585B00FF08CFAA023042298
:104AD00096499748FFF795F8002296A3114610468D
:104AE00007F0ECFB00219EA30422084607F0E6FB3A
:104AF0008E4968460A7800243032027044704A7841
:104B00003032027144718A78303202724472C9784C
:104B100002463031017344736021032011F0E6F83E
:104B200001AA6821032011F0E1F802AA70210320F4
:104B300011F0DCF803AA7821032011F0D7F8894896
:104B400000788949800042187F21012011F006F980
:104B50008648874D0178874F0A07120F1346303376
:104B60002B702B465C700B0930333B703B465C70FE
:104B70004578814B2E07360F30361E705C702D093C
:104B80007E4B30351D705C7085787D4B2E07360F5F
:104B900030361E705C702D097A4B30351D705C709C
:104BA000C578794B2E07360F30361E705C702D0994
:104BB000764B30351D705C700579754B2E07360FBE
:104BC00030361E705C702D09724B30351D705C7074
:104BD0004379714D1E07360F30362E706C701D09EB
:104BE0006E4B30351D705C706D4B6E4C1B78012B1D
:104BF00002D125682A4322606B4D2A78402A05D0CD
:104C0000102A03D0202A04D1032B02D2644A5B1C51
:104C10001370227808091207120F00010243634E35
:104C20001007000F52493270303008700020487071
:104C30001109303139707870584A3821052011F047
:104C400055F8554A3E21052011F050F8514A4421AB
:104C5000052011F04BF84E4A4A21052011F046F884
:104C60004A4A5021052011F041F8474A56210520B3
:104C700011F03CF8434A5C21052011F037F8404A16
:104C80006221052011F032F83C4A6821052011F01C
:104C90002DF8394A6E21052011F028F8354A742183
:104CA000052011F023F8324A7A21052011F098F8F6
:104CB0003F480A210078062248433E4943184C21C8
:104CC000002007F0FBFA2878012720281AD1344861
:104CD0000078032822D1254831780170417841704D
:104CE00081788170C178C170017901714179417118
:104CF0000146A0230622304807F0C2FE2F4820605C
:104D000027480770287810280AD0402806D1244860
:104D10000178032902D12A492160077005B0F0BD4E
:104D20001F4801780329F9D12649F5E768000020DA
:104D3000482A000020BACFD5A2D1D3CAB13A0D205B
:104D4000D0DEB8C4C3DCC2EB3A0D20CDA8D0C5B5C7
:104D5000D8D6B73A0D20B6CCBDD3C4A3CABD3A004D
:104D60003E000000651D00201C250020ED200020D5
:104D70001A0000200E0000201C000020100000205F
:104D80001E0000201200002020000020140000203F
:104D9000220000201600002024000020180000201F
:104DA000D0190020AC1E002009000020462500205C
:104DB000EF1C00205E1C00202D27000000010800D1
:104DC0000001030000B10300F0B585B00FF00AF94F
:104DD000A023042296499748FEF713FF002296A3CA
:104DE0001146104607F06AFA00219EA304220846E5
:104DF00007F064FA8E4968460A780024303202705F
:104E000044704A783032027144718A7830320272CA
:104E10004472C97802463031017344736021032023
:104E200010F064FF01AA6821032010F05FFF02AABE
:104E30007021032010F05AFF03AA7821032010F0FC
:104E400055FF894800788949800042187F21012058
:104E500010F084FF8648874B01780A07120F303222
:104E60001A701A4654700909834A3031117011467C
:104E70004C704178814B0A07120F30321A701A4673
:104E800054700A097E4930320A704C7081787D4A2C
:104E90000B071B0F3033137054700A097A493032F4
:104EA0000A704C70C278794913071B0F30330B70AE
:104EB0004C701209764930320A704C70027975498B
:104EC00013071B0F30330B704C70120972493032CC
:104ED0000A704C704679714935072D0F2A463032D9
:104EE0000A7033096E4A4C70303313706D4B547036
:104EF0001B786D4C012B02D127683D4325606B4D1B
:104F00002F78402F05D0102F03D0202F04D1032B52
:104F100002D2644F5B1C3B70237830091B071B0FC8
:104F200000010343624F1807000F7B713030087097
:104F3000002048701909303111705070584A3821DA
:104F4000052010F0D3FE554A3E21052010F048FF01
:104F5000514A4421052010F0C9FE4E4A4A2105203D
:104F600010F0C4FE4A4A5021052010F0BFFE474A07
:104F70005621052010F0BAFE434A5C21052010F0AE
:104F8000B5FE404A6221052010F0B0FE3C4A68217F
:104F9000052010F0ABFE394A6E21052010F0A6FE68
:104FA000354A7421052010F0A1FE324A7A210520ED
:104FB00010F09CFE3F480A210078062248433E49F3
:104FC00043184C21002007F079F928780126202881
:104FD0001AD134480078032822D12548A02301782B
:104FE00001704178417081788170C178C170017918
:104FF00001717979417101460622304807F040FD80
:105000002F48206027480670287810280AD04028AA
:1050100006D124480178032902D12949216006706C
:1050200005B0F0BD1F4801780329F9D12549F5E7FE
:1050300068000020482A000020BACFD5A2D1D3CAE8
:10504000B13A0D20D0DEB8C4C3DCC2EB3A0D20CD9E
:10505000A8D0C5B5D8D6B73A0D20B6CCBDD3C4A319
:10506000CABD3A003E000000651D00201C2500203E
:10507000ED2000201A0000200E0000201C0000205F
:10508000100000201E000020120000202000002040
:105090001400002022000020160000202400002020
:1050A00018000020D0190020AC1E002009000020AC
:1050B00046250020EF1C00205E1C00202D2700004C
:1050C0000031030000110300F0B585B00EF08AFF37
:1050D000A023042296499748FEF793FD002296A349
:1050E0001146104607F0EAF800219EA30422084664
:1050F00007F0E4F88E4968460A78002430320270DE
:1051000044704A783032027144718A7830320272C7
:105110004472C97802463031017344736021032020
:1051200010F0E4FD01AA6821032010F0DFFD02AABF
:105130007021032010F0DAFD03AA7821032010F07B
:10514000D5FD894800788949800042187F210120D7
:1051500010F004FE8648874B0178904D0A07120F25
:1051600030321A701A4654700909834A303111706E
:1051700011464C704178814B0A07120F30321A7079
:105180001A4654700A097E4930320A704C70817890
:105190007C4A0B071B0F3033137054700A097A498D
:1051A00030320A704C70C278784913071B0F3033C5
:1051B0000B704C701209764930320A704C700279CB
:1051C00074491607360F334630330B704C70130991
:1051D0001A46714930320A704C70427917073F0FF6
:1051E00030372F706C7015096D4A3035157054705A
:1051F0006C4A6D4C1278012A02D125682B4323603A
:105200006A4D2B78402B05D0102B03D0202B04D1D6
:10521000032A02D2634B521C1A702278644F120781
:10522000120E324313071B0F5A483A713033037082
:10523000002343701009303008704B70584A3821F1
:10524000052010F053FD554A3E21052010F04EFD7B
:10525000514A4421052010F0C3FD4E4A4A21052041
:1052600010F044FD4A4A5021052010F03FFD474A06
:105270005621052010F03AFD434A5C21052010F02C
:1052800035FD404A6221052010F030FD3C4A68217E
:10529000052010F02BFD394A6E21052010F026FD67
:1052A000354A7421052010F021FD324A7A2105206B
:1052B00010F01CFD3F480A210078062248433E4971
:1052C00043184C21002006F0F9FF287801262028F9
:1052D0001AD134480078032822D12548A023017828
:1052E00001704178417081788170C178C1703979DD
:1052F00001714179417101460622304807F0C0FB37
:105300002F48206027480670287810280AD04028A7
:1053100006D124480178032902D129492160067069
:1053200005B0F0BD1F4801780329F9D12549F5E7FB
:1053300068000020482A000020BACFD5A2D1D3CAE5
:10534000B13A0D20D0DEB8C4C3DCC2EB3A0D20CD9B
:10535000A8D0C5B5D8D6B73A0D20B6CCBDD3C4A316
:10536000CABD3A003E000000651D00201C2500203B
:10537000ED2000201A0000200E0000201C0000205C
:10538000100000201E00002012000020200000203D
:10539000140000202200002016000020240000201D
:1053A00018000020D0190020AC1E002009000020A9
:1053B00046250020EF1C00205E1C00202D27000049
:1053C0000041030000210300F0B585B00EF00AFE95
:1053D000A023042297499848FEF713FC002297A3C4
:1053E0001146104606F06AFF00219FA304220846DA
:1053F00006F064FF8F4968460A7800243032027054
:1054000044704A783032027144718A7830320272C4
:105410004472C9780246303101734473602103201D
:1054200010F064FC01AA6821032010F05FFC02AABE
:105430007021032010F05AFC03AA7821032010F0F9
:1054400055FC8A4800788A49800042187F21012053
:1054500010F084FC8748884B0178914E0A07120FA0
:1054600030321A701A4654700909844A303111706A
:1054700011464C704178824B0A07120F30321A7075
:105480001A4654700A097F4930320A704C7081788C
:105490007D4A0B071B0F3033137054700A097B4988
:1054A00030320A704C70C178794A0B071B0F3033C9
:1054B000137054700A09774930320A704C700379BE
:1054C00075491D072D0F2A4630320A704C701A0993
:1054D000724930320A704C70427917073F0F3037EB
:1054E0003770747016096F4A3036167054706E4AF1
:1054F0006E4C1278012A02D12668354325606C4D26
:105500002E78402E05D0102E03D0202E04D1032A51
:1055100002D2654E521C3270227818091207120FFF
:1055200000010243634F13071B0F5B483A7130338E
:105530000370002343701009303008704B70594AD3
:105540003821052010F0D2FB554A3E21052010F0ED
:10555000CDFB524A4421052010F0C8FB4E4A4A2197
:10556000052010F03DFC4B4A5021052010F0BEFBF9
:10557000474A5621052010F0B9FB444A5C2105201A
:1055800010F0B4FB404A6221052010F0AFFB3D4A09
:105590006821052010F0AAFB394A6E21052010F081
:1055A000A5FB364A7421052010F0A0FB324A7A216F
:1055B000052010F09BFB40480A2100780622484352
:1055C0003E4943184C21002006F078FE2878012639
:1055D00020281AD134480078032822D12548A02356
:1055E000017801704178417081788170C178C17013
:1055F000397901714179417101460622304807F03D
:105600003FFA3048206028480670287810280AD0D1
:10561000402806D124480178032902D12949216074
:10562000067005B0F0BD204801780329F9D126495C
:10563000F5E7000068000020482A000020BACFD516
:10564000A2D1D3CAB13A0D20D0DEB8C4C3DCC2EBBC
:105650003A0D20CDA8D0C5B5D8D6B73A0D20B6CCD6
:10566000BDD3C4A3CABD3A003E000000651D0020A2
:105670001C250020ED2000201A0000200E00002034
:105680001C000020100000201E000020120000203E
:10569000200000201400002022000020160000201E
:1056A0002400002018000020D0190020AC1E00208B
:1056B0000900002046250020EF1C00205E1C002071
:1056C0002D2700000051030000310300F0B585B024
:1056D0000EF088FCA023042297499848FEF791FA1F
:1056E000002297A31146104606F0E8FD00219FA373
:1056F0000422084606F0E2FD8F4968460A78002435
:105700003032027044704A783032027144718A78C3
:10571000303202724472C9780246303101734473E8
:105720006021032010F0E2FA01AA6821032010F0A2
:10573000DDFA02AA7021032010F0D8FA03AA78211A
:10574000032010F0D3FA8A4800788A498000421872
:105750007F21012010F002FB8748884B01788D4F94
:105760000A07120F30321A701A4654700909844A17
:105770003031117011464C704178824B0A07120F7C
:1057800030321A701A4654700A097F4930320A7052
:105790004C7081787D4A0B071B0F303313705470A7
:1057A0000A097B4930320A704C70C1780A07120F1F
:1057B000134630333B7009090D46774B7C7030350A
:1057C0001D705C700579754B2E07360F30361E70D4
:1057D0005C702D09724B30351D705C704379714DD2
:1057E0001E07360F30362E706C701D096E4B30352B
:1057F0001D705C706D4B6E4C1B78012B02D12568BF
:10580000294321606B4D2978402905D0102903D008
:10581000202904D1032B02D264495B1C0B70217830
:10582000654E0907090E11430807F170000F30306B
:1058300038700022090958487A703031017042707E
:10584000594A3821052010F051FA564A3E210520C8
:1058500010F04CFA524A4421052010F047FA4F4A02
:105860004A21052010F042FA4B4A5021052010F041
:10587000B7FA484A5621052010F038FA444A5C210C
:10588000052010F033FA414A6221052010F02EFA6B
:105890003D4A6821052010F029FA3A4A6E21052078
:1058A00010F024FA364A7421052010F01FFA334A0A
:1058B0007A21052010F01AFA40480A2100780622C1
:1058C00048433F4943184C21002006F0F7FC394873
:1058D000012500783B4F202819D13448007803284F
:1058E00021D12548A0230178017041784170817849
:1058F0008170F178C170017901714179417101467E
:105900000622314807F0BCF828482760057029486E
:105910000078102809D0402805D1244801780329AF
:1059200001D12760057005B0F0BD2048017803293A
:10593000F9D126492160F5E768000020482A0000D7
:1059400020BACFD5A2D1D3CAB13A0D20D0DEB8C487
:10595000C3DCC2EB3A0D20CDA8D0C5B5D8D6B73A36
:105960000D20B6CCBDD3C4A3CABD3A003E00000092
:10597000651D00201C250020ED2000201A000020BD
:105980000E0000201C000020100000201E0000203F
:10599000120000202000002014000020220000201F
:1059A000160000202400002018000020D01900203C
:1059B000AC1E00200900002046250020EF1C00201E
:1059C0005E1C0020006103002D2700000041030041
:1059D000F0B585B00EF006FBA02304229749984845
:1059E000FEF70FF9002297A31146104606F066FC59
:1059F00000219FA30422084606F060FC8F496846F8
:105A00000A7800243032027044704A7830320271D1
:105A100044718A78303202724472C9780246303159
:105A2000017344736021032010F060F901AA68211A
:105A3000032010F05BF902AA7021032010F056F940
:105A400003AA7821032010F051F98A4800788A4986
:105A5000800042187F21012010F080F98748884B90
:105A600001780A07120F30321A701A465470090969
:105A7000844A3031117011464C704178824B0A07CC
:105A8000120F30321A701A4654700A097F493032A8
:105A90000A704C7081787E4A0B071B0F30331370ED
:105AA00054700A097B4930320A704C70C2787A49C6
:105AB00013071B0F1D4630350D701609774D4C70BE
:105AC00030362E706C700679754D37073F0F3037C2
:105AD0002F706C703609734D30362E706C704579AE
